:4000000000800020110000008D0500008D05000010B500F0C3FAC04610B512222C4B1A6000F002FD012000F01FFD182000F016FC284A294B1A60294A116802230B43136001
:40004000274A284B1A600024274B1C60274A136808218B431360FA20C00000F0B1FC244800F0F2FB234A244B1A60244B244A1A6080218900234A1160234A1A6080221206A4
:40008000224B1A60224B1C604122224B1A60013A214B1A602149082000F0ACFB082000F09DFB1F4A1F4B1A60E022D2001E4B1A600132FF321D4B1A601C4B1B681B05FBD409
:4000C00080225200194B1A60EF3A014B1A6010BD300010400600008004010B4078002E402D3E00007C002E4064F02E406CF02E40DC050000005FEA000403014000000140A2
:4001000041FF00800003014040FF008008010B4000010B403801014030010140810B00000000FF0108020B400C020B4010020B4070B572B600223E4B1A6001323D4B1A7022
:4001400000240FE03C486200131959000B00411889881A5AC31858880004104300F00CFA0134E4B2022CEDD9002411E0324EA2001319590071188D8AC88A000428430A8B9F
:40018000498B09041143802200F0FCF90134E4B2002CEBD0284920312848343000F0C2F9274A284B1A60284A284B1A6099231B04274A136080210905264A1160264A1360A1
:4001C000A4218903254A1160254A1360254A13600223254A1360254A136025490B783C22934314221343DBB20B70224A117816230B43DBB2137020221F4B1A60DB221204A3
:400200001E4B1A6009221E4B1A601E4A1E4B1A6080221E4B1A608022D2031D4B1A60922292001C4B1A60FFF7F7FE00F095F970BD6CF02E401C700F4014450000944600000F
:40024000000030EE00000240033000000001024000500F4008500F4010500F4018500F4020500F4030500F402000104000800F4001700F4000700F40000004400800044020
:4002800000010440060C00000801044000020440080204400803044010B5064C2378002B07D1054B002B02D0044800E000BF0123237010BD5001002000000000044500008C
:4002C000084B10B5002B03D00749084800E000BF07480368002B00D110BD064B002BFBD09847F9E7000000005401002004450000C00000200000000010B5064C23785B0075
:40030000054A985A00F0C0F92378013303221340237010BD6C010020C4000020F0B557464E464546E0B484B080468A46170003F0BFFF00900191380003F0FCFF02000B00DF
:400340000020394900F088FC029003910024454648E0A146354A61008B5AFF20834398468B52002F03D0BC4203D0FF2602E0FF2600E0FE260A21280001F004FE89B22C4B23
:400380005B5C4A4652003340414619430B0027495352029A039B0098019901F00FFE00280AD116E00134E4B220496000435AFF2293430222134343527B1E9C42F2DB01341B
:4003C000E4B21A496000435AFF2293430222134343520A21280001F04FFD85B2002D03D00134E4B2032CB4D95346002B09D00134E4B20E496000435AFF229343FD2213438B
:4004000043520134E4B207E0084A6100885AFF2303438B520134E4B2032CF5D904B01CBC90469946A246F0BD00002440C40000200845000070B5041C002506E00135ADB283
:400440000849201C02F042F8041C201C02F052F902F072F9011C201C01F0E4FD0028EDD0280070BD00002041F0B583B02848FFF7E1FF050062B600F051F9264800F082F9B9
:40048000254C2349201C01F0FBFD041C234901F0CFFD002800D0002401260021201C01F0C7FD002800D10026F7B2280003F042FF02000B0000201A4900F0CEFB009001910D
:4004C000201C03F06FFF009A019B03F0CDF803F0B9FEC317C0185840EEB280B232003900FFF71CFF00F09EFB002804D132000021FFF714FF00249620400000F08DF900F0CD
:400500004FF90028BDD1AF20800000F085F9B8E79A99193FF9020000000010C100C079C400002440F0B50025002711E0BB00C658F3B2FF22964308E06A008A181478A41912
:40054000527822700135013BDBB2002BF4D10137072FEBD9F0BDC0460323044A1360044A13600022034B1A607047C0463000304030003140000E3F4010B50A00002103F04B
:40058000B8FF10BD10B503F0ABFF10BD10B503F07BFF03680C2B00D1FEE7FEE770B50F4E0F4D13E029686B68AC68002202E001C901C30432A242FAD1E868002202E00021E4
:4005C00002C304328242FAD11035013E002EE9D103F060FFFFF748FFFEE7C046010000009848000010B50E4A136801218B43136000230AE0032B03D89A000A49505800E024
:4006000009489900094A885001332F2BF2D9FFF78FFD034A116801230B43136010BDC04600001040000000008D0500000000002010B500F00AFB0B4A117820230B43DBB294
:40064000137009490A7810231A43D2B20A70074A11780B43DBB2137000F0FBFAFF2000F0A7F810BD92000F4091000F4093000F40014B1878C0B2704761000F40014B1878C9
:40068000C0B2704763000F40034B1B785B07FBD5024B18807047C04661000F4084100F4010B501E00E4B1B880E4B1B789B06F9D400F0CBFA0C490A78012401231A43D2B265
:4006C0000A700A78A2430A70084A11780B43DBB213701378A343137000F0BBFA10BDC046A4100F4063000F4092000F4093000F4010B51F22064B1A70FFF7D2FFFFF7B8FF2D
:40070000FFF7BCFF0023034A1370034A137010BD82000F4081000F4083000F4010B5064B1B78002B04D1FFF7E3FF0122024B1A70FFF77EFF10BDC0466D010020014B5864AE
:400740007047C0460000002010B5040000F07DFA044A1168044B0B40A4031C43146000F078FA10BD00E400E0FF3FFFFF0222014B1A60704700E100E00222014B1A6070475F
:4007800080E100E010B50400FFF7F6FF2000FFF7D5FF0320FFF7D8FFFFF7E8FF10BDC046024B1868400801231840704704030440044B1B68002BFBDB0002034B1843014B5D
:4007C000186070470000014040000080024B1B68012018407047C0460C002E401F2318401E3B8340014A13607047C04600E100E001BE704770B504000D001F2802D9002069
:40080000FFF7F6FF1034A40080239B059C4664442068256070BDC04610B5040006E0084B586800F009FA074B9C46644480231B029C42F4D8024B9868604300F0FDF910BD3A
:40084000CC0000200080FFFF10B5034B1B7B584300F0F2F910BDC046CC000020F0B557464E46C0B483B0040000F0EFF90190E71E2D2F74D83F4B1B78DBB29C4208D83E4BA8
:400880001B78DBB29A463D4B1B78DBB2994631E03B4B1B78DBB29C4208D83A4B1B78DBB29A46394B1B78DBB2994623E0374B1B78DBB29C4208D8364B1B78DBB29A46354BD0
:4008C0001B78DBB2994615E0334B1B78DBB29C4208D8324B1B78DBB29A46314B1B78DBB2994607E02F4B1B78DBB29A462E4B1B78DBB299462D4BDE5D2F2E09D92A2C07D9AF
:4009000019222B4B1A60052000F096F9192503E0274B1D683F231D40B54206D9234BDA5D234B1A60052000F087F91F4B9C4664442378DBB21F4A13601F4B52461A601F4B3B
:400940004A461A600520FFF77FFFB5420AD2174BDA5D174B1A60052000F06EF902E00020FFF746FF019800F074F903B00CBC91469A46F0BD40F3FF0F41F3FF0F42F3FF0F38
:4009800043F3FF0F44F3FF0F45F3FF0F46F3FF0F47F3FF0F48F3FF0F49F3FF0F4AF3FF0F4BF3FF0F4CF3FF0F4DF3FF0F684700002CFF0B4028FF0B401CFF0B4020FF0B40AD
:4009C00010B504000F4A116801230B4313600E4A0E4B1A600E4A1368802109020B431360002809D100200CE00120FFF72DFFFFF7EDFE002804D1013C002CF5D1102000E09E
:400A0000002010BD60F02E400220000078002E4010002E40034B1868C0231B02184000D00120704700010B4010B50D4B1A6801218A431A601A68022082431A60094A1068B5
:400A40003024A043203C204310601068093CA043014311601A68802109060A431A6010BD00F02E4000FF2E4070B51D4B1B6801241C40002802D0012816D02BE0184B1968A1
:400A80000122914319601968022081431960154B19682E3081432038014319601968093881430A431A6018E00D4B1A6802218A431A600C4A10680725A84301431160116832
:400AC00030208143103801431160196801220A431A6002E00020FFF78BFE200070BDC04600F02E4000FF2E4010B500F0AEF8044A1368C02109020B43136000F0AAF810BDAB
:400B000000010B4010B500F0A0F808490A68084B1A408024E40122430A600A6813408022120213430B6000F094F810BD00010B40FF3FFFFF70B5050000F087F80400FFF7B4
:400B400069FF002803D0FFF7DDFF012100E0002108482840084A1568084B2B40184310601368012901D1FFF7BFFF200000F071F870BDC0460404040010020B40FBFBFBFFDD
:400B800010B5244B1B685B0715D5234B5B685B070ED5224B596A042001401F4C62688A4362605A6A82435A629B69002B00D098470420FFF7BFFF174B1B685B0518D5164BD5
:400BC0005B685B0510D5154B596A8022D2001140114842688A434260596A114A0A405A62DB69002B00D098478020C000FFF7A2FF084B1B685B030CD5074B5B685B0304D5F9
:400C0000064B1B6A002B00D098478020C002FFF791FF10BD10020B40E000002070010020FFFBFFFF024B1868C00901231840704704020440000000000230800803D0013890
:400C4000FDD1C046C046C0467047EFF3108072B6704780F310887047F0B55F464D4656464446F0B491B01F0004000D00160000F0AFF9CF4B029003919B461B785BB2994664
:400C800001334FD032003B003000390003F0BAFA0090002846D122002B002000290003F0B1FA00228246002834D100232000290001F07EF900283AD0002200233000390096
:400CC00001F076F90590002800D174E006AB9846012342460693B74B5360434652469C60DD601A621E615F614246002300249361D4614B46002B00D194E00023AE4C00936B
:400D000001940098019911B03CBC90469946A246AB46F0BD00233000390001F049F9002800D0EBE0029B039C00930194E9E70298039900F07DFF8146002800D186E00298E0
:400D400003990022002301F033F90028EAD02000290000F06DFF029A039B009201930028CFD03000390000F063FF029A039B009201930028C5D006AB984604234246069318
:400D80008C4B9460D560536000230024136200239361D4615B461B78166157615BB2022B04D0404600F04EFF002840D103F06CFB222303603BE03000390000F039FF029AC1
:400DC000039B0092019300289BD0002200233000390001F0F3F8002800D192E706AB9846012342460693734B53604346059A9C60DD601A621E615F615B461B785BB2002BD3
:400E00000BD0002042466D499061D161022B09D103F03AFB2123036009E04246002300249361D461404600F00DFF0028F0D043461B6A002B04D003F027FB43461B6A0360A2
:400E40004346DC699B69009301945AE72000290000F0EEFE002800D171E73000390000F0E7FE002800D16AE7029803990B00020003F0C8F906AB984600287AD10323424692
:400E800006934C4B106253605B461B789460D5605BB2166157619946002B48D1E0224146474B12068A61CB61200000220023290001F084F8002800D173E70022414B3000AB
:400EC000390002F0D1FB04000D0000F0C3FE02000B002000290001F06BF8002805D1E022394B120641468A61CB615B461B785BB299464B46022B00D053E757E706AB9846A0
:400F00000123424606932B4B536043469C60DD600024009A284D1A621E615F619C61DD614B4600940195022B00D07BE7E9E600224146264B20008A61CB61002200232900B0
:400F400001F03CF80028D4D000221E4B3000390002F08AFB04000D0000F07CFE02000B002000290001F024F80028BED10022134BB8E70123424606930E4B536043464A46F7
:400F80009C60DD601A621E615F6100245B461C57002C00D141E7002300221900100001F03FFF43469861D961022C00D130E739E7E8000020984700000000F03F0000F0FF4C
:400FC000FFFFEF470000E03FFFFFEFC70000F07FF0B556464D4644465F46F0B41C001300670091B07F080093019406000D0080468946A2463B4332D06E4B6C0064089C42CF
:4010000029DC26D09F4226DC6A4B9F4200D189E000239B464B46002B00DA87E0002A2FD1644B9F4200D19FE0634B9F425DD08023DB059A4501D100F0C1FB604B9A451FD1E1
:401040004B46002B1CDB3000290000F0F7FC060007E000280DD05A4BE01830430BD100265549300011B03CBC90469946A246AB46F0BDA742C8DD534800F0E6FD0600F0E7E2
:401080003000290000F0D0FD4346002B1DD0EB0F013B98465B464246134379D04A4B9F4200DC9FE0494B9F4201DC00F0CEFB484B9C4279DD5346002B79DD464A464B1000AF
:4010C000190002F0D1FA0600CBE7002C04D03A4AAB009B089342DAD15346002B00DAADE34B46002B0DDB0600BBE753462900002BB7DA32002B0000202F4901F091FE06009D
:40110000AFE72F4B9C465B4664441C4301D100F02BFC5B460600012BA3D180231B069C4661449EE7002A00D172E794E72B4B9F422BDC274B9F4200DC70E729493B158C46CE
:401140006344142B01DC00F0F2FB3421CB1A0099D94008009840824200D05FE70123194001335B1A9B4659E7154BE018064300D175E7174B9C4200DC51E35346002B16DB0F
:40118000009B019C1E0021006BE702239B4645E732002B003000290002F0E0FC02000B0001F03EFE06005CE75346002B85DB0026002156E70000F07F0000F03F0000E03FC8
:4011C000000010C09C4700000000E0410000F043FFFFEF3F9C7500883CE4377EFFFF3F4301FCFFFFE84B00229C4206DC0022E74B02F03AFA35220C005242E54D2315AC46F1
:40120000634499462403E34DE34B240B914425439C4209DDE14B9C4200DCA9E301239C46DF4BE1449C466544002300240022089309940C930D940024D64B06920793069A29
:40124000079B29000A900B9102F088FC069A079B06000F000A980B9901F0B6FA02000B000020CC4901F0DCFD0A00010013000E910F9202003900300002F0F6F90A000100F8
:401280008020049105921300002280210003844602920393002289056D100D4365442B190298039914001D0002F0DEF902000B003000390002F052FC069A079B06000F00EE
:4012C0002000290002F04AFC02000B000A980B9902F044FC029A039B02F0C6F902000B003000390002F03AFC0E9A0F9B02F0BCF9049D059E069007912A003300280031003E
:4013000002F0B2F906000F00A64AA74B02F0ACF9A64AA74B01F058FA32003B0002F0A4F9A44AA54B01F050FA32003B0002F09CF9A24AA34B01F048FA32003B0002F094F95B
:40134000A04AA14B01F040FA32003B0002F08CF99E4A9F4B01F038FA320004000D003B003000390002F080F902000B002000290002F07AF9029E039F04000D0004980599F9
:4013800032003B0001F020FA069A079B02F06CF922002B0001F018FA32000A900B913B00300039000296039702F05EF90022894B04000D0001F008FA0A9A0B9B01F004FA12
:4013C00000260F0032000B000298039902F04CF90022029003917F4B3000390002F0BEFB22002B0002F0BAFB02000B000A980B9902F0B4FB049A059B02F036F9320004006B
:401400000D00069807993B0002F02EF902000B002000290001F0D8F904000D0002000B000298039901F0D0F90026E0226A4B120630000F0002F018F9029A039B049005914C
:401440003000390002F08AFB02000B002000290002F084FB614A604B02F006F9604A04000D00604B3000390002F0FEF802000B002000290001F0A8F90C9A0D9B01F0A4F903
:40148000060048460F0002F013FF04000D000498059932003B0001F097F9089A099B01F093F922002B0001F08FF9002022002B000290039102F052FB089A099B02F04EFB70
:4014C000049A059B02F04AFB02000B003000390002F044FB049005915B464246013B134300D197E100232B4C069307940098019900260B0032000F0002F030FB029A039BD9
:4015000002F0B2F8009A019B04000D000498059902F0AAF802000B002000290001F054F904000D00029803993B0032000494059502F09AF8009001910B0002002900200084
:4015400001F042F9284B81460F008A46994200DC3CE1264BCB18034300D0DBE104980599234A244B01F030F9009A019B04000D004846390002F0F2FA02000B0020002900BA
:4015800000F030FD3E0037E0FFFF0F000000404301FCFFFF0000F03F8E98030079B60B000000F0FFEF4E454A287ECA3F65DBC9934A86CD3F01411DA96074D13F4D268F517B
:4015C0005555D53FFFAB6FDBB66DDB3F033333333333E33F0000084009C7EE3FFD033ADCF5015B14E02F3EBEFFFF8F40000070BFFE822B654715973C002800D08AE18022CD
:40160000E74B52039C461300361566443341E549DB195E001C001B038C461B0B13431422760DE14F66443741961B334198465346BC4300202100002B00DAA9E102000B003A
:401640000098019902F08AFA0B000090019102000498059901F0B8F843461B05994600200022D24B06000F0001F0FEFF009A019B029003913000390002F070FA02000B00A0
:401680000498059902F06AFAC94ACA4B01F0ECFFC94A04000D00C94B3000390001F0E4FF02000B002000290001F08EF804000D0002000B000298039901F086F8029A039B57
:4016C00006000F0002F04AFA02000B002000290002F044FA3200009001913B003000390001F0C2FF04000D00B54AB64B01F0BCFFB54AB64B02F032FA22002B0001F0B4FFA3
:40170000B34AB44B01F060F822002B0001F0ACFFB14AB24B02F022FA22002B0001F0A4FFAF4AB04B01F050F822002B0001F09CFF02000B003000390002F010FA04000D000B
:4017400002000B003000390001F08EFF8023029003910022DB052000290002F0FFF902000B000298039901F05BFB009A019B04000D003000390001F077FF009A019B01F0AF
:4017800023F802000B002000290002F0E7F932003B0002F0E3F902000B000020924902F0DDF94B465B181A15002A00DCF4E01900069A079B01F058FF060052E4320030008D
:4017C0002B00290001F050FF06004AE4874B4E0076089E4200DCBFE0854BCB1803430CD1009A019B02F0BAF902000B000498059900F0EEFB002800D101E7069807997D4A71
:401800007D4B01F031FF7B4A7B4B01F02DFF0600FFF727FC0023794C0693079466E65346002B00DBC3E4009B019C802212061E009446230063441900FFF713FC02000B006B
:401840000020694901F0ECFA4AE46D4B9C4200DCAAE4654B9C4201DDFFF72CFC0022624B02F07CF9C022674BD20504000D0001F0FBFE654A06000F00644B2000290001F0BE
:40188000F3FE002202900391614B2000290001F0EBFE02000B005F485F4902F05FF922002B0001F0E1FE02000B0000205B4902F055F92200049005912B002000290001F09B
:4018C000D3FE02000B000498059901F0CDFE544A4C4B01F0C9FE02000B000298039902F03DF902000B0004000D003000390000F06BFF002210003B0032000290039102F024
:401900002DF902000B002000290002F027F904900591E1E5434A444B0698079901F0A4FE404A414B01F0A0FE0600FFF79AFB002A01D0FFF7A5FB1432D31A3A001A4111009C
:4019400099408F4201D0FFF76FFB012313400222D31A9B46FFF768FB304B9E4200DD4EE60023994698467AE602000B00FFF714FC80232E4CDB05089309942D4B2D4C0022C3
:401980000C930D9480242C4BE4020692079356E443465B42984651E6424600F0FDF907E702FCFFFF01FCFFFFFFFF0F00432EE63FEF39FAFE422EE63F396CA80C615C20BEA0
:4019C000D0A4BE726937663EF16BD2C541BDBB3E2CDE25AF6A56113F93BDBE166CC1663F3E5555555555C53F0000F03FFFCB904000346F3F59F3F8C21F6EA5010000F0BFB3
:401A0000FEFFEF3F4715F73F44DF5DF80BAE543E0000D03F555555555555D53F0000E03FFE822B659C7500883CE4377E03B8E23F06D0CF43EBFD4C3E0000F83FF0B55646BA
:401A40004D4644465F46754BF0B40A000D00190083B0060004002940994200D1BAE0002D00DC94E02D1500D1A3E06D4B12039C468023120B5B0365441A43EB0700D581E016
:401A80006B109846E30F9B189B18802216210026002764009203B818984202DC87181B1AB618E00F5B0001391B18640052080029F1D100220192944680221206202091466C
:401AC00009E09F4241D0E10FC9180138CB186400520800281ED0614651189F42F1DA8D18AC46CD0FED07BA464D4539D0DB1B8C42BF417F42DB1B641A019901388B46934418
:401B000059460191E10FC9185746CB18640052080028E0D123432BD1019B5B08414972108C466244F10702D5802109060B43414609058D181E002F003000390003B03CBC3F
:401B400090469946A246AB46F0BDA1420ED88D18AC46CD0FED074D4548D09A460023CAE76546002DC2DB7D1CAA46BFE73B00AAE7019B01333ED0019A0123944613406344BB
:401B80005B08CBE7E30F52009A18640078E76B005B0803432F00002BCED00025002A31D1E20A153D6405002AFAD080235B031A4223D180200023400300E00B005200591C56
:401BC0000242FAD02020401AED1A2300C3408C401A434AE702002B00290001F045FD32002B0000F0F1FD06000F00A5E76546002DB9DAB2E70136002390E7012320205B427B
:401C00000021E1E73B000200390001F0A7FF02000B0001F005F906000F008DE70000F07F01FCFFFF0000E03F49004B0819007047034B48009C4640086044C00F7047C04644
:401C40000000108000207047002001497047C0460000F87FF0B5474680B4CB0F98464A4C4B005B0D1E1982B007000A00132E35DC002E57DB454B040033411F000F4007430C
:401C80000D00002F24D05B081C000C4020430027002807D0132E00D172E08022D202324199430A434346DE00394B11009E1934687568380022002B0000F086FD00900191E4
:401CC0000098019922002B0001F048FF04000D002000290002B004BC9046F0BD332E0CDD80230400DB000D009E42F1D102000B0000F06AFD04000D00EAE7264C0D00A446B4
:401D0000012463446442DC40A446614604000142DED049080142C5D08027FF051F4188430743BFE74B005B08034304000D00002BCED00B031B0B03435A42134380221B0B9E
:401D4000120313404A0C5204134319004346104ADB00D3181C685D6822002B0000F034FD009001910098019922002B0001F0F6FE42464B005B08D607334304001D00A7E7C2
:401D800080273F0689E7C04601FCFFFFFFFF0F00A0470000EDFBFFFF4B0070B55B0D14000A00002B1AD14B005B08034315D00022224B01F059FC224B0A009C4222DB4B0095
:401DC0005B0D363B1F4DE318AB4220DC002B0DDD1D4C1B0522401A43110070BD1B4DAB42F0D102000B0000F0EFFCF6E71D00353518DA174B02009C420ADC0B0015481649DC
:401E000000F032F8134A144B01F02EFCE5E702000B001248124900F027F8104A104B01F023FCDAE7084C363322401B051343190000220C4B01F018FCCFE7C0460000504313
:401E4000B03CFFFFFE070000FFFF0F80FF07000050C3000059F3F8C21F6EA5019C7500883CE4377E0000903C30B54A00DB0FDB0752081A43110030BD002243088B4274D329
:401E800003098B425FD3030A8B4244D3030B8B4228D3030C8B420DD3FF22090212BA030C8B4202D31212090265D0030B8B4219D300E0090AC30B8B4201D3CB03C01A524123
:401EC000830B8B4201D38B03C01A5241430B8B4201D34B03C01A5241030B8B4201D30B03C01A5241C30A8B4201D3CB02C01A5241830A8B4201D38B02C01A5241430A8B42FA
:401F000001D34B02C01A5241030A8B4201D30B02C01A5241CDD2C3098B4201D3CB01C01A524183098B4201D38B01C01A524143098B4201D34B01C01A524103098B4201D32D
:401F40000B01C01A5241C3088B4201D3CB00C01A524183088B4201D38B00C01A524143088B4201D34B00C01A5241411A00D20146524110467047FFE701B5002000F006F8BE
:401F800002BDC0460029F7D076E770477047C0468446101C62468C46191C634600E0C0461FB501F0F7FA002801D40021C8421FBD10B501F04BFA4042013010BD10B501F07C
:401FC000E9FA002801DB002010BD012010BDC04610B501F0DFFA002801DD002010BD012010BDC04610B501F071FA002801DC002010BD012010BDC04610B501F067FA00285D
:4020000001DA002010BD012010BDC0468446081C6146FFE71FB500F015FA002801D40021C8421FBD10B500F0A1F94042013010BD10B500F007FA002801DB002010BD0120FB
:4020400010BDC04610B500F0FDF9002801DD002010BD012010BDC04610B500F0AFF9002801DC002010BD012010BDC04610B500F0A5F9002801DA002010BD012010BDC04681
:40208000F8B54A02430244004E00C50F240E28009B09360EC90F92098D4259D0A01B002800DC8DE0002E1AD1002A00D079E05A0704D00F221A40042A00D004335A0138D5DA
:4020C0000134FF2C00D189E028009B015B0AE4B25B02E4055B0A2343C0071843F8BDFF2CE5D08021C9040A431B2800DD89E016002021C640081A8240511E8A4132439B1AD6
:402100005A0114D59B019E09300002F09FF905388640844265DC041B330020200134E340041BA640721E964100243343BFE75A07BFD1DF082800FF2C2FD1002F00D187E02C
:402140008022D20313003B435B025B0AFF24BFE7A11B002949DD002E29D0FF2CA7D08026F60432431B2900DD8DE017002026CF40711A8A40511E8A413A439B185A01D6D524
:402180000134FF2C64D0012276491A405B080B4013438CE7031ECAD100207B025B0AE4B296E701380028AAD0FF2C9DD17FE7002A00D17CE701390029DFD0FF2CD2D176E792
:4021C000002820D1601CC0B2012853DD80279E1AFF0437402FD0D61A0D0095E72800002376E7614B241A334061E700294DD1611CCEB2012E2FDDFF292AD09B185B080C001E
:4022000055E701227BE7002C1BD1002B5BD0C04300280CD0FF2E7ED01B2800DD92E01D002024C540201A8340581E83412B43D31A34000D0064E7002E00D065E70020002449
:40224000ABE7FF2E67D08024E40440422343E3E7FF2400233CE7002C61D1002B7ED0002A00D124E79B185A0100D460E73E4A0C0013401CE7002C1ED1002B2FD1002A66D02B
:4022800013000D0013E7012277E7002C1FD1002B5AD0C94300290BD0FF2E50D01B295FDC1F002024CF40611A8B40591E8B413B439B18340062E7002B1CD1002A4AD013001E
:4022C0000D00FF24F3E6130034000D00EFE6FF2E35D08024E40449422343DFE7002A00D1E5E68027981AFF04074000D152E7D31A0D00DCE6FF24002A00D1D8E68020DB08A9
:40230000C003034204D0D208024201D113000D00DB00FF24CBE61300FF240D00C7E6002B0DD0FF24002A00D1C1E68021DB08C9030B42EDD0D2080A42EAD11300E8E7130015
:40234000FF24B4E6012372E713003400AFE60027002022E780270020FF03F1E61300A6E60123A5E7FFFFFF7DFFFFFFFB430270B542004C005D0AC30F4802120E460A240E79
:40238000C90FFF2A0FD0FF2C11D00120A24200D070BDB542FCD18B420DD0002AF8D12800431E9841F4E70120002DF1D1EBE70120002EEDD1E9E70020EAE7C0464302F0B5F1
:4023C00042005D0AC30F4802440A4800120E000EC90FFF2A1FD0FF2822D0002A09D16E426E4100280FD1002C0DD10020002D09D005E0002801D1002C01D08B4213D058428A
:4024000001231843F0BD002EF7D048424141012049420843F6E7002DDDD002204042F1E7002CDAD0F9E78242E9DC04DBA542E6D80020A542E6D25842434101205B4218438C
:40244000E0E7C0464302F0B542004C005E0AC30F4802120E450A240EC90FFF2A17D0FF2C19D0002A0BD170427041002C17D0002807D048424141012049420843F0BD002C9F
:4024800013D08B4214D0584201231843F6E70220002EF3D1E3E70220002DEFD1E1E7002DE5D10020002EE9D0EDE7002DE9D1EAE7A242E8DC04DBAE42E5D80020AE42DDD274
:4024C0005842434101205B421843D7E7F0B557464E4645464300E0B446028846760A1F0EC40F002F47D0FF2F25D0002380259A469946F600ED042E437F3F434642465D02A3
:40250000D20F5B006D0A1B0E904640D0FF2B39D080220020ED00D20415437F3BFB1842465746591C62408C4607430F2F5CD86F49BF00C9598F46002E45D108239A46063B34
:402540009946DAE7424602282DD0032800D1C3E0012800D0A2E0002500260240D4B27602ED05760A2E43E407264330001CBC90469946A246F0BD002E1AD104239A46033B80
:402580009946BAE72A00511E8A41901CC6E70120002DC3D0280001F059FF431F76309D4043420020BAE70124FF2514400026D6E7300001F04BFF431F9E40002376304742E4
:4025C0009A46994699E70C239A46093B994694E780260024F603FF25C1E735004846B2E7350022004846AEE72904090C0800370C3604360C2C0C7943704367437443060C67
:4026000064183619B14203D980214902884647440004000C310409188D01681E8541890E2943350CED19AD010D43290104D5012369081D4063460D4319007F31002925DD51
:40264000680704D00F202840042800D00435280103D5274980330D401900FE29A3DC0124AD016E0A1440CDB279E78020C003064207D0054205D128434602760A4446FF251D
:402680006DE706437602760AFF2568E70124611A1B2905DD14400025002660E76346CBE72E002023CE40591A8D406B1E9D412E43730704D00F233340042B00D004367301D4
:4026C00004D5012401251440002648E70124B601760A1440002542E780260124F6032E437602760A1440FF2539E7C046B0470000FFFFFFF74302590A4300C20F1B0E002054
:402700007E2B0EDD9D2B0DDC802000040143952B0BDC9620C31AD9400B005842002A00D118007047034BD018FBE7963B99400B00F3E7C046FFFFFF7F70B5002830D0C3175A
:40274000C5185D40C40F280001F080FE9E231B1A962B0DDC9622D21A95406A02520AD8B25202C005520AE40702432243100070BD992B19DC9922D21A9540124A2A40690758
:4027800004D00F210D40042D00D00432510103D50C4B1A409F231B1A9201520AD8B2DFE7002400200022DBE705222E00121AB921D6402A00C91A8A40551EAA413500154325
:4027C000DBE7C046FFFFFFFBF8B556465F464D464446F0B40F00FD0FAA4609037C002E005F00450F490A7F0D2943C5001803BC46400A570F640DDB0F3843D2009A4500D1C1
:40280000AAE06646A61B002E00DCFFE06346002B39D10300134300D0D9E06B0709D00F232B40042B05D02B1DAB42AD416D4249191D000B0200D482E0CA4B01349C4200D17F
:40284000FEE00A005646C84BED081A405007640552020543120B640D002112030B0D1B056405120B1A436308C04CF60714401C43640064083443280021003CBC90469946D3
:40288000A246AB46F8BDB74B9C42C6D080231B041843382E00DDEBE01F2E00DD1EE120239B1B9C4603006746BB40984613004746F3403B436746BA40571EBA41134302009C
:4028C000F240EB1A9D42B6411D008A1A7642911B0B0231D54A02560A002E00D1B4E0300001F0B4FD0300083B1F2B00DDB5E020222900D21AD1409E400A009D4032439C4200
:4029000000DDB1E01C1B631C1F2B00DDD5E0202114002800C91A8C40D8408D400443DA40681E854111002543002476E74146314300D134E2310045466B0700D06FE756460D
:402940004807ED08C9080543864B9C4235D00A036405120B640D7FE76346E31A9B46002B00DC8BE06746002F3CD07E4FBC4200D153E780273F0438435B46382B00DCF7E009
:402980000243501E82410020D2B253194218AB4289411D00494289180B02CDD5714B01349C4200D13DE101206F4A6B080A4028401843D507054351082FE72B000B4300D193
:4029C000CBE180231B030B431A03120B44E7013E002E6DD1AE1AB5429B41091A5B42C91A350075E70700174300D116E701235B429C46E3445B46002B00D0E0E0AA18AA423A
:402A00009B4109185B4259181500C5E7002E75D1661C7605760D012E00DCF3E0AE1AB0464545BF410E1A7F42F61B370200D48FE0551BAA42B641411A76428E1B9A464BE719
:402A400056460022002507E7280001F0FFFC20300300083B1F2B00DC49E72A002838824000259C4200DC4DE73F49E41A1140D4E60243501E8241D3B2002222E7002B00D074
:402A8000F3E0631C9C465B055B0D012B00DC9FE0344B9C4500D1C3E0AA180918AA42804140424118CD075208154349086446B4E62C4B9C4200D0ECE6AFE611001F3CE14020
:402AC0000C00202B00D17FE04021CB1A9A4015436A1E95410021254300242DE733000700203BDF403B00202E70D04027BE1BB0400243501E824113430022E2E6002C4FD00A
:402B0000184CA44500D1ABE08024240476422143382E00DDDFE01F2E00DD43E12027BC1BA1460C004F46BC40A0462C004746F4403C434F46BD406F1EBD41F1402C43151BD3
:402B4000AA429241411A5242891A64469A46BFE641464546314300D0BEE6002600240025F2E6C046FF070000FFFF7FFFFFFF0F801F2B59DC2027FF1ABC46070063469F400F
:402B80005B46B9461700DF40B8464F4643461F4363469A40531E9A415B463A43D840F4E60C002C435CD0F643002E55D1551BAA42A441411A6442091B9A46644688E6964F6B
:402BC000BC4200D0D8E628E6002280E700208FE70B002B43002C00D0C2E0002B00D101E10300134300D118E6AB18AB42B6410918764271180A0200D409E1884A1D001140EC
:402C000064460AE6002C5BD10E002E4300D08AE00100114300D1C2E0010015009A46FCE56446002100258FE620235B429C46DC4463460700DF405B46BC46202B00D1ACE0E9
:402C400040235F46DB1B98400243501E8241634613431A00002098E66F4CA44500D057E70100150064469A46D7E5002C39D10C002C436ED0DB43002B1AD0674CA44568D04D
:402C8000382B00DDA4E01F2B00DDAEE020240F00E41AA740B9462F00DF40B846A3464F46444627435C46A5406C1EA541D9403D43AD1895429B4109185B42591864466BE674
:402CC0000C002C4315D1010011437BD0010015009A46514CA1E50D43691E8D410021ECB22DE74D4CA44534D0802424045B422143C6E7040014434ED0ED084C072C4380256D
:402D0000C9082D03294208D0C6082E4205D1D208410711430C009A463100620FC900E50011433D4C79E50600164300D175E5AE1AB0464545BF410E1A7F42F61B370200D475
:402D4000F4E5551BAA42B641411A7642891B9A4663E50100150064465FE5002200257BE5002B3BD00300134315D0ED084B072B438025C9082D03294207D0C4082C4204D17D
:402D800041070B002100D2081343C9005A0F1143DD00214C41E5204C3FE5002054E700260025D1E534000F00203CE7403C00202E2BD04027BE1BB1400D43691E8D4100214B
:402DC0002C43BCE6802100260903134C0025BBE50D43691E8D410021EDB269E7010015000D4C1AE50100150017E51C000F00203CE7403C00202B0CD04027FB1A99400D43E0
:402E0000691E8D410021254352E70021D4E71D0092E50021F3E7C046FF070000FFFF7FFFF0B556464D4644465F46F0B41D000E034C00CB0F87B0070092468146360B640DFE
:402E400098466AD06D4B9C4235D08022430F12041343F6001E43C3009946694B00279C460023644402932B0368001B0BED0F51469B46400D009500D178E0604B98426CD02D
:402E80005B46DA004B0F802109040B4313439B465346D9005A4B9C46002360444246201A6A40924601901F430F2F00D9B0E05548BF00C0598746374300D088E00023994676
:402EC0000233082700260293CDE74346B34649460093029B009A9246022B00D0BFE1002153460122002689461A40444B002136030C0D2405360B2643434C1B0526401E4338
:402F00007600D207760816434846310007B03CBC90469946A246AB46F0BD330003434FD0002E00D1BCE1300001F090FA03000B3B1C2B00DDADE11D220100D31A08393A0040
:402F40008F408E40DA40B9461643304B00279C46002360444442029385E753465A4613432CD1002300219B46023397E70B4320D05B46002B00D19EE1584601F067FA0300BF
:402F80000B3B1C2B00DD8FE102005946083A91408B461D21CB1A5146D9400B0059460B4351469B469140194B9C4660444042002374E7002300219B4601336FE703236DE78B
:402FC0000023994601330427002602934BE703230C27029347E70122D51A382D00DCB0E153461A4000210023002689467EE700238026994600223603004B77E7FF07000040
:4030000001FCFFFFF0470000FFFF0F80F30300005E4500D972E100D16DE1019B4D46013B01930023340002935B461E020B0E1E430B020393330C994633041B0C49462000F9
:403040000093FEF719FF009B370043430600494620009846FEF796FF2C0C09040C43A04509D9E419731EA74200D95CE1A04500D859E1023EE4194346E41A49462000FEF7F4
:40308000FBFE0300009A80465343494620009B46FEF778FF2A040904120C0A4393450DD94346D219013B974200D93AE1934500D837E102235B429C46D219E0445B46D21A39
:4030C0004346360433439B460399180C0B0C1D00059309045B46090C0C001B041B0C4443049159436B4368431B190D0CEB189C4203D980246402A44660441C0C09041B040E
:40310000090C20185D18824200D2DEE000D1D7E0161A029B9C465D1BAC459B415B42F61AB74200D106E149463000FEF7A5FE009B04004343494630009846FEF723FF2E0C35
:4031400009040E43B04509D9F619631EB74200D9F3E0B04500D8F0E0023CF6194346F31A494618000293FEF787FE009B06004343494602989846FEF705FF2D0409042D0C11
:403180000D43A84509D9ED19731EAF4200D9D6E0A84500D8D3E0023EED192404210043463143049E059A3000ED1A0B040C0C1B0C58436643534354439A19030C9B189E4249
:4031C00003D980225202944664441A0C00041B04000C14191B18A54250D34DD001231943964A019B94466344002B00DCF3E64A0709D00F220A40042A05D00A1D8A428941DD
:4032000049428B4411005A46D20108D55A468C4B1A4093468022D2009446019B6344894A934200DD5BE65A46C908500708435602514601225B058146360B5B0D0A4055E658
:4032400080231B031E4211D05A461A420ED15E461E433603360B2A0089467B4B46E6032B00D1E1E0012BBBD11A40BBE61E433603360B4246744B39E6002BB1D07D194A1EA9
:40328000AF4252D91100A542A8D1039A9A42A5D1A6E703003E00283B9E400023994654E601F0D4F8203041E603005246283B9A400021934677E6504601F0C8F820305EE609
:4032C000029B0026AB4200D323E7039E0299B44661448846B045B6415B467642F619B218013B0291974213D290424FD800D18EE0161A9B460DE7894500D28EE674084B468F
:40330000F60735005B081D434B46DB0702938BE69742EDD10399029CA142E5D93E1A9B46F7E69846CAE61E00A5E6AC423ED874D0110053E70121494252E71C000EE71E00B8
:403340002BE71F2D3CDC20230A0058465B1B9840EA4099400243481E81415E461143EE404B0709D00F230B40042B05D00B00191D99429B415B42F61833023CD553460122B7
:4033800000211A40002601238946AFE502235B429C46039CE344A446029B63449846A045B6417642F6190293B218B1E603988A1E41008142B6417642F619AD19039161E72F
:4033C0001F225242D31A5A46DA401300202D29D040225846551BA8400143481E814107200B4318400026002809D00F2200261A401900042ABBD10B0070077602360BDB089E
:4034000003439946012253461A4000236EE502998D42BBD89B4600267BE603989842C5D3110032E70020D7E780265B4636031E433603360B009A8946034B57E5FF03000011
:40344000FFFFFFFEFE070000FF070000F0B55F4656464D464446F0B41F035C00DB0F9A46194B0E034D00C90F8046360B6D0D8B4691463F0B640D9D4219D0134B9C421BD0EA
:403480000123A54206D018003CBC90469946A246AB46F0BDBE42F6D1C845F4D1D34510D0002DF0D1304303005A1E9341EBE7310001230143E7D1E0E73A430123002AE2D137
:4034C000DEE70023DFE7C046FF070000F0B55F46444656464D46F0B41F033C0B2C4F0E034D00A3465C008446360B6D0DC90F9046640DDB0FBD422BD0254FBC422ED0002DBF
:403500000ED130430700814678427841002C17D15F463A4314D14B460020002B0AD006E0002C02D15846024301D099421AD00123484218433CBC90469946A246AB46F0BD8D
:403540000028F2D058425841012240421043F1E737000743D0D002204042EBE75F461743CDD0F8E7A542E2DC05DB5E45DFD808D000205E45DED2484248410123404218430E
:40358000D8E7C445D3D80020C445F4D3D2E7C046FF070000F0B55F464D4644465646F0B41C03240BA4462F4C0F034D005E00C90F80463F0B6D0D8B469146760DDB0FA5426E
:4035C00020D0284CA64222D0002D12D1384344424441002E20D0002C0DD05C42634101245B421C4320003CBC90469946A246AB46F0BD002E17D05B4519D05B465C42012319
:403600001C43EFE7390002240143EBD1D9E7614602241143E6D1D7E761460A43DBD100240028DFD0E9E761460A43E4D1E5E7B54203DD01225C421443D4E7B542CDDB6745CB
:40364000DBD809D000246745CCD259464C426141012449420C43C5E7C845CED80024C845F3D3BFE7FF070000F0B55F4656464D464446F0B40D0399464E002B0B87B0070028
:40368000924680469B46760DCC0F002E69D06D4B9E4235D05B468022DD001204430F13432B439B46C3009846674B00279C460023664401934A4615035000D20F53462D0B95
:4036C000400D914600D176E05E4A90426CD080225B0F120413435C4AED0094461D4353460022DB00604449463618701C6140029017430F2F00D9AFE05448BF00C759BF462E
:403700005B461F4300D088E000239B469846023308270193CEE74946022A6AD0032A00D109E2012A00D0BBE111400022002300259046CCB200212D030A0D12052D0B15432C
:40374000434A1B0515401D436D00E4076D0825434046290007B03CBC90469946A246AB46F0BD034352D05B46002B00D18AE1584600F06CFE03000B3B1C2B00DD7BE11D22A9
:40378000D31A3A0001005D46DA4008398D4013008F402B439B46B8462E4B00279C46002360444642019385E752462A432CD100250023022297E752462A4321D0002D00D136
:4037C00054E1280000F042FE03000B3B1C2B00DD46E11D21CB1A51460200D9405346083A954093400D431B4A944660444042002279E7012400220C40124B0025904699E7AE
:403800000025002301226EE703226CE700239B4698460133042701934CE703230C27019348E700238025984600242D03054B81E75D464346019A6FE75D4643462100019A75
:403840006AE7C046FF07000001FCFFFF30480000FFFF0F80F30300004246120C91461A0C9446424617044A461B041B0C5A43604690464A4642431000039262461C003F0C1D
:403880007A437C4342440192220C9246019A5244904506D98246802040028046C24450460390100C049048462404240C1204121905922A0C2D042D0C68432C0082464846AE
:4038C0007C4350438146200C8046574357444744BA4503D9802040028046C144380C3F04B84648442404240C01900498A044404404905846000C814658460404200C8246D8
:40390000070048465F434C464343604660436446834650464443380C8446E4186444A34203D980235B029C46E34448463F04230C3F0C2404E419574668436F4384464D461C
:40394000504655434243380C814662444A445B44944503D9802040028446654403983F04834604983F0C8446E344C345804140428246100484460198674484466744A3449C
:40398000BC46A345A4419946D44464428742BF41D4458041E144A04699459B417F424042C8440743120CBA18A045A4415F423B0064422343D71843467D19DB0D6D021D4333
:4039C0005B465A02059B1A43531E9A415B46DB0D1A4343465B021343EA0107D501225C0813402343EA07029E13436D08574AB218002A4BDD580709D00F201840042805D07F
:403A0000181D98429B415B42ED180300E80104D54F4A15408022D200B2184E48824200DDE7E60124DB08680718436D02530580462D0B5B0D0C407DE68022594612031142AD
:403A400008D0154206D115432D0398462D0B4C46414B6FE65D4615432D032D0B3E4B69E603005546283B9D400023BCE6504600F0EDFC2030A8E60300283B9F400023BB469B
:403A8000984689E600F0E2FC203073E60124A61A382E07DD00220C4000230025904649E6029EA3E71F2E20DC20222C001800921BF040944093400443581E83411C43F540C6
:403AC000630709D00F232340042B05D023001C1D9C4292415242AD182B021FD5012400220C4001230025904624E61F202C004042821AD440202E1CD04022961BB5402B435A
:403B0000581E83410720234318400025002809D00F2200251A401C00042AD8D1230068076D022D0B0124DB08034398460C40002300E60025E3E780220124120315432D0390
:403B400098462D0B0C40044BF4E5C046FF030000FFFFFFFEFE070000FF070000F0B557464E464546E0B40E001100F20F9246C500420F180337037400400A4E0F7F0A30433E
:403B8000CF4E17435A00640D520DDB0FC900B24200D1E5E001267340A61AB446534500D1AFE0002E00DC0DE1002A3AD103000B4300D0E4E06B0709D00F232B40042B05D09D
:403BC0002B1DAB42AD416D427F191D003B0200D488E0BB4B01349C4200D110E13A00B94B51461A4001235007ED08520264050543120B640D0B400021280012030D0D120BD8
:403C000064052D0515436208AF4CDB072C401443640064081C4321001CBC90469946A246F0BDA74B9C42C5D080231B0418436346382B00DDFDE01F2B00DD30E162462023AA
:403C40009B1A02009A40664690460A009940F24046464B1E99413243114363460200DA40691A8D429B410D00BA1A5B42D71A3B0235D57A02530A98464346002B00D1C4E0FB
:403C8000404600F0E3FB0300083B1F2B00DDC5E020222900D21A4746D1409F400A009D403A439C4200DDC0E01C1B631C1F2B00DDE4E0202114002800C91AD8408C408D4059
:403CC0000443DA40681E854117002543002471E7424663461A4300D14CE2674645466B0700D069E7012351467807ED08FA080B40054373498C4238D012036405120B640D63
:403D000079E7002E00DC9AE0002A47D06C4A944200D14FE78022120410436246382A00DC08E10143481E81410022C9B24919D219A942BF410D007F42BF183A0200D442E1D8
:403D40005F4A0134944200D14EE101205D4A69083A4028400843D507054357089A4629E706000E4300D017E714E72900114300D1F9E1802109030A431203120B3BE70123FC
:403D80005B429846C4446346002B72D1691A8D429B413F1A5B42FF1A0D0068E702000A4300D107E7012252429046C4446246002A00D0E6E06918A942B6413F187642F71943
:403DC0000D00BAE7002E00D080E0621C5205520D012A00DCF9E06A1A91464D45B6413A1A7642921B9046120200D499E04D1BA9428941C71B49427A1A90469A463CE7524640
:403E00000123002513400022F5E6280000F01EFB20300300083B1F2B00DC39E72A002838824000259C4200DC3EE7264FE41A1740C0E60143481E81410022C9B210E7002EEE
:403E400000D0F1E0621C94465205520D012A00DCA0E01B4A944500D1C5E06918A94292413F185242D2194908D5070D4357086446A0E6134B9C4200D0D9E69BE611001F3C7F
:403E8000E1400C00202B00D180E04021CB1A9A4015436A1E95410027254300241FE763460200203BDA406346202B71D0402366469B1B98400143481E814111430022CFE641
:403EC000FF070000FFFF7FFFFFFF0F80002C48D0CA4CA24200D1A2E07442A1468024240427434C46382C00DDDBE01F2C00DD44E14E462024A41B3E00A640A246B0464C4649
:403F00002E00E640B4464646644626435446A5406C1EA54134002C434D46EF400D1B28E04A4643464D461A4300D0A5E6002300240025DEE61F2A5ADC66462022921B06005C
:403F400096409146B04662460E00D640424616434A4691404A1E9141020060463143C240E4E63C002C435AD0F443A146002C52D14D1BA9428941C71B49427F1A14009A4615
:403F800075E69E4A944200D0C7E613E600227FE700208FE7002C00D0C8E03B002B4300D10FE103000B4300D104E66918A9429B413F185B42DF193B0200D41AE1904B0D0012
:403FC0001F406446F6E59A4689E63A002A43002C5CD1002A75D102000A4300D1CAE007000D009A46E6E564460022002581E662460600203AD6406246B046202A00D1B7E0CF
:4040000040226646921B904001434246481E8141114300228AE6794CA24200D061E707000D0014009A46C5E5002C41D13C002C4378D0F443A146002C20D0704CA24271D05C
:404040004C46382C00DDB2E01F2C00DDBCE02026341BA2463C005646B4404E46A0462C00F440A446444666463443A4465446A54064466E1EB54125434C46E7406D188D4253
:4040800089413F184942CF19140056E6002A2FD102000A4300D184E007000D009A46574C88E53D436F1EBD41ECB200270D1B60E7524CA24236D0744280263604A1463743AC
:4040C000BEE702000A4300D174E56A1A90464545B6413A1A7642921B9446120200D4F7E54D1BA9428941C71B49427F1A9A4661E502000A433AD0ED087C072C438025FA0840
:404100002D032A4208D0C7082F4205D145072C003A009A46C9080C43670FD200E5001743364C47E507000D00140043E53A002A4343D002000A4319D0ED087C072C43802540
:40414000FA082D032A4207D0C6082E4204D147073C003200C9080C43D700620FE50017439A46264C26E50022002544E5234C21E5002049E700230025BBE54C463E00203CAE
:40418000E6404C46B446202C31D040244E46A61BB7403D436C1EA54164462C4300270D1BE7E6802200231203144C0025A1E53D436F1EBD410027EDB260E707000D000F4CBF
:4041C000F8E407000D00F5E44E463C00203EF440A0464C46202C0ED040244E46A41BA7403D436F1EBD4144460027254346E70027CFE70D0073E50027F2E7C046FF070000B5
:40420000FFFF7FFF70B50E4E0C031D0349005B00240B490D2D0B5B0DB14204D0084900208B4208D070BD04430120002CFAD1044900208B42F6D115432800451EA841F1E77B
:40424000FF0700000B0330B5134D1A0B4B005B0DC90F0024AB4211DD104CA34210DC8024640322430E4CE41A1F2C0CDD0D48C31ADA4013005C42002900D11C00200030BDED
:40428000094BCC18FAE7E040084CA44663449A4013000343EEE7C046FE0300001D0400003304000013040000FFFFFF7FEDFBFFFF70B5002830D0C317C4185C40C50F20006D
:4042C00000F0C4F8174B184A1B1AD21A1F2A18DD164AD21A9440002224035B05240B5B0D0021100024030A0D1205240B1443104A1B0514401C436400ED0764082C43210002
:4043000070BD210091400A000B21081AC4405B052403240B5B0DE3E70025002300240022DEE7C0461E0400003304000013040000FFFF0F8070B5051E28D000F087F8154BB5
:40434000154A1B1AD21A1F2A16DD2C00134A0025D21A94405A052403240B520D002124030B0D240B1B0523430D4C1205234013435B002800590870BD0B212C00081AC44032
:40438000954024035A05240B520DE7E700220024E4E7C0461E0400003304000013040000FFFF0F804200120E511C4302C9B270B55D0AC40F012915DDE02189008C466D0758
:4043C0001B0B6244002128000D0D2D052B431C4D52052B40520813435B00E4075B082343190070BD002A15D1002D1FD0280000F02DF80A281DDC0B232A001B1ADA40130070
:404400000200153295400F4A1B03121A52051B0B520DD7E7002D06D080221B0B120313436D07094ACEE7084A0023CBE700220023C8E703000B3B9D402B000025E3E7C0460E
:40444000FFFF0F8089030000FF0700001C2101231B04984201D3000C10391B0A984201D3000A08391B09984201D30009043902A2105C40187047C046040302020101010130
:404480000000000000000000014B18687047C0464C0100200E4B70B500251E000D4CE41AA410A54204D0AB00F35898470135F8E700F0E0F9084B00251E00084CE41AA41030
:4044C000A54204D0AB00F35898470135F8E770BD80480000804800008048000088480000002310B59A4203D0CC5CC4540133F9E710BD03008218934202D019700133FAE728
:404500007047000000000000039F250D9949411F01097FFD00300F40000280320F40800100400F400004000000320F40E846000080000000821F3A0358045C035F018438AE
:40454000884D8A10945095039627970C99059A029B0A9D029F0DA854AA2BAD09AF06B23CB403B640B70FB808BB80BE40D409D804D904DB04DC11DD10DF01050407080E08D3
:404580000F201280130117201A801D441E0826802F02368037285C205E425F046540C060C260C440CA10CC70D6F0D810801B84C4862888228A448C1A8E01908492109880A8
:4045C0009C049E1AA01BA41BA81BAE01B0E0B201B4E0B61EBAA2BE04C064C103C210C50EC6F0C7DCC839C9FFCAFFCBFFCC22CEF0CF48D004D440D804DA04DB04DC01DD115D
:40460000DF01E2C0E440E502E610E712E8C0E902EB12EC40ED02EE40EF02035505100602076008200A820B080EA00F0A108A11041514170118101A821B131D901E4226585D
:40464000273C2F86364037293C803D043E104180430645804728480249404A084B044F285002512053046010616067016C086D146E106FC174C076028D048E049301964049
:40468000970499049C209D109F28A204A601A712AA40B510C0FFC2FBC47FCAB0CCF0CE70D07BD224D81EE250EA406308D840500457046F088C048F04A308AB08B704D460FE
:4046C000DA80EE80010A100A01000F4022300F4019310F4037320F4048330F4002400F400B410F4002600F40090000001498200202020098099A0000089800020E13706437
:40470000C02100D8AC3812C0089A0100090000000102080000FC00031000000FFE1301E0200000880000410026031000000B000001FFFFFF03007048040000000000022037
:4047400004040404111100010000C00040021012C00200124002400200000000000000000000000000000000030405060708090A0B0C0E0F101112131415161718191B1C1E
:404780001D1E1F2021222325262728292A2B2E2F3031323334350000706F770000000000000000000000304300000000000030C3E82500004625000046250000442500006D
:4047C000DA250000DA250000D025000044250000DA250000D0250000DA25000044250000E0250000E0250000E02500006A26000010300000DE2E0000E42F0000D42E000001
:40480000E42F0000EE2F0000E42F0000D42E0000DE2E0000DE2E0000EE2F0000D42E0000CA2E0000CA2E0000CA2E0000403200005838000018370000183700001637000027
:404840003038000030380000223800001637000030380000223800003038000016370000383800003838000038380000383A000043000000F8B5C046F8BC08BC9E4670477F
:40488000C1020000E5050000F8B5C046F8BC08BC9E46704799020000A8480000C0000020900000004800000000000000FF10FF20FF40FF80010000000000E02EC05D00002A
:4048C0001800000000366E01F00000000404040001000000000000000000000000000000000000000000000000000000000000000000000070480000000000000000000046
:4049000000000000000000000000000000000000000000000000000000000000000000000000000000000000000000000000000000000000EC00002000000000000000006B
:404940000000000000000000000000000000000000000000000000000000000000000000000000000000000000000000000000000000000000000000000000000000000037
:4049800000000000000000000000000000000000000000000000000000000000000000000000000000000000000000000000000000000000000000000000000000000000F7
:4049C00000000000000000000000000000000000000000000000000000000000000000000000000000000000000000000000000000000000000000000000000000000000B7
:404A00000000000000000000000000000000000000000000000000000000000000000000000000000000000000000000000000000000000000000000000000000000000076
:020000040003F7
:0200000490303A
:0200000029B421
:0200000490402A
:4000000000000000000000000000000000000000000000000000000000000000000000000000000000000000000000000000000000000000000000000000000000000000C0
:400040000000000000000000000000000000000000000000000000000000000000000000000000000000000000000000000000000000000000000000000000000000000080
:0200000490501A
:0C00000000021A1711AA00011A2F3B5E23
:0200000490600A
:0100000001FE
:00000001FF