:400000000080002011000000ED040000ED04000010B500F073FAC04670B5294D12232B6000F0B0FC012000F0CDFC182000F0C4FB244A254B1A60254A116802230B43136027
:40004000234A244B1A600024234B1C60234A136808218B431360FA20C00000F05FFC204800F0A0FB1F4A204B1A60204B204A1A60802189001F4A11601F4A1A609B21090267
:400080001E4A11601E4A1A60802212061D4B1A601D4B1C6042221D4B1A60023A1C4B1A6001321C4B1A601C49082000F051FB082000F042FB194B1C6011232B6070BDC0469E
:4000C000300010400600008004010B4078002E402D3E00007C002E4064F02E406CF02E40DC050000005FEA00080301400000014042FF00800003014040FF00800403014020
:4001000041FF008008010B4000010B40380101403001014004010140DD0A00000C020B4070B572B600223A4B1A600132394B1A7000240FE038486200131959000B00411860
:4001400089881A5AC31858880004104300F0C4F90134E4B2022CEDD9002411E02E4EA2001319590071188D8AC88A000428430A8B498B09041143802200F0B4F90134E4B28F
:40018000002CEBD02449203124485C3000F07AF9234A244B1A60244A244B1A6099231B04234A1360A221C905224A1160224A1360D021C903214A1160214A13600223214A83
:4001C0001360214A136021490B783C22934314221343DBB20B701E4A117816230B43DBB2137020231B4A13601B491C4A116029211B4A11601B491C4A11601C4A1360922233
:4002000092001B4B1A60FFF707FF00F055F970BD6CF02E401C700F4028100000A8110000000030EE00000240033099000001024000500F4008500F4010500F4018500F4034
:4002400030500F402000104000800F4001700F4000700F4000000440B60DDB000800044000010440061C030008010440180104400803044010B5064C2378002B07D1054B5B
:40028000002B02D0044800E000BF0123237010BD50010020000000000C100000084B10B5002B03D00749084800E000BF07480368002B00D110BD064B002BFBD09847F9E767
:4002C00000000000540100200C100000C00000200000000010B5064C23785B00054A985A00F0ACFC2378013303221340237010BD6C010020C4000020F8B54F464646C0B44D
:400300000500884600241EE0394F63009946DE5BFF239E434B46DE530A21280000F08EFD89B2344B5B5C1E434B46DE53444501D1013EDE530A21280000F0FAFC85B2002D36
:4003400003D00134E4B2032CDED94246631C9A4209D1274855002B5AFF218B4302210B432B520134E4B2A31C9A4212D1204B41464E00F15AFF25A94302200143F152414603
:4003800001394900C85AA84303252843C8520234E4B2E31C9A4219D1154A43465800835AFF25AB4302210B4383524346581E4000835AAB4303210B4383524346023B5B0088
:4003C000985AA843014399520334E4B20134E3B207E007495800445AFF22224342520133DBB2032BF5D90CBC90469946F8BDC046C400002010100000F0B585B062B600F038
:4004000067FC1E4800F0E0FB00F0D6F8FA20800000F0B0F91A4800F07BF90025002301930027002601E00197012500F05BF90400C3B2002BF9D00D2B0ED1002302AAD355EA
:40044000100000F001FD86B2FF20204000F0D2F8012D0CD000210DE02E2BE4D0042EE4D07A1C02A9CB550136F6B2D7B2DDE7019BF91AC9B23000FFF73FFFCEE7D50200005B
:400480001C100000F0B50025002711E0BB00C658F3B2FF22964308E06A008A181478A419527822700135013BDBB2002BF4D10137072FEBD9F0BDC0460323044A1360044A14
:4004C00013600022034B1A607047C0463000304030003140000E3F4010B50A00002100F0EEFC10BD10B500F0E1FC10BD10B500F0B1FC03680C2B00D1FEE7FEE770B50F4EFD
:400500000F4D13E029686B68AC68002202E001C901C30432A242FAD1E868002202E0002102C304328242FAD11035013E002EE9D100F096FCFFF760FFFEE7C046010000004F
:40054000FC13000010B50E4A136801218B43136000230AE0032B03D89A000A49505800E009489900094A885001332F2BF2D9FFF7D7FD034A116801230B43136010BDC04630
:400580000000104000000000ED0400000000002010B500F091F810BD10B500F039F810BD10B5044A1368802109060B431360FFF7EFFF10BD0000244010B5064B1B78002B34
:4005C00004D1FFF7E9FF0122024B1A70FFF7E8FF10BDC0466E010020014B18687047C04640032440024B1B681F2018407047C04608032440044B1B681F221340082BF9D0EA
:40060000024B18607047C0460802244040022440154A164B1A600023154A13601549164A1160164A16490A6007201649086016490B6006381549086015490A60154A136047
:400640000421154A1160154A1360154A1360154A1360154A1360154A1360154A13601268144B1A807047C0460F000002000024404000244001000A00480024400700008012
:4006800000032440040324401003244044002440000224400402244050002440880E2440C80E2440480F2440080F2440C80F2440880F244070010020064A1168064B0B402F
:4006C000902109040B431360044B1A88044B1A607047C04600010240FFFF0FFF70010020880F244010B5FFF77DFF002802D0FFF773FF00E00020054B1A68D8239B001A42CC
:4007000003D01A00014B1A60002010BDC00F244070B50500002402E0FFF76CFF0134285D0028F9D170BDC046024B1B68012018407047C0460C002E401F2318401E3B834040
:40074000014A13607047C04600E100E001BE704770B504000D001F2802D90020FFF7F6FF1034A40080239B059C4664442068256070BDC04610B5040006E0084B586800F0BD
:40078000C7FA074B9C46644480231B029C42F4D8024B9868604300F0BBFA10BDCC0000200080FFFF10B5034B1B7B584300F0B0FA10BDC046CC000020F0B557464E46C0B47F
:4007C00083B0040000F0ADFA0190E71E2D2F74D83F4B1B78DBB29C4208D83E4B1B78DBB29A463D4B1B78DBB2994631E03B4B1B78DBB29C4208D83A4B1B78DBB29A46394BF7
:400800001B78DBB2994623E0374B1B78DBB29C4208D8364B1B78DBB29A46354B1B78DBB2994615E0334B1B78DBB29C4208D8324B1B78DBB29A46314B1B78DBB2994607E026
:400840002F4B1B78DBB29A462E4B1B78DBB299462D4BDE5D2F2E09D92A2C07D919222B4B1A60052000F054FA192503E0274B1D683F231D40B54206D9234BDA5D234B1A6096
:40088000052000F045FA1F4B9C4664442378DBB21F4A13601F4B52461A601F4B4A461A600520FFF77FFFB5420AD2174BDA5D174B1A60052000F02CFA02E00020FFF746FFA3
:4008C000019800F032FA03B00CBC91469A46F0BD40F3FF0F41F3FF0F42F3FF0F43F3FF0F44F3FF0F45F3FF0F46F3FF0F47F3FF0F48F3FF0F49F3FF0F4AF3FF0F4BF3FF0F16
:400900004CF3FF0F4DF3FF0FA41200002CFF0B4028FF0B401CFF0B4020FF0B4010B504000F4A116801230B4313600E4A0E4B1A600E4A1368802109020B431360002809D1C1
:4009400000200CE00120FFF72DFFFFF7EDFE002804D1013C002CF5D1102000E0002010BD60F02E400220000078002E4010002E40034B1868C0231B02184000D0012070470C
:4009800000010B4010B50D4B1A6801218A431A601A68022082431A60094A10683024A043203C204310601068093CA043014311601A68802109060A431A6010BD00F02E4056
:4009C00000FF2E4070B51D4B1B6801241C40002802D0012816D02BE0184B19680122914319601968022081431960154B19682E3081432038014319601968093881430A43C6
:400A00001A6018E00D4B1A6802218A431A600C4A10680725A84301431160116830208143103801431160196801220A431A6002E00020FFF78BFE200070BDC04600F02E403F
:400A400000FF2E4010B500F06CF9044A1368C02109020B43136000F068F910BD00010B4010B500F05EF908490A68084B1A408024E40122430A600A6813408022120213436A
:400A80000B6000F052F910BD00010B40FF3FFFFF70B5050000F045F90400FFF769FF002803D0FFF7DDFF012100E0002108482840084A1568084B2B401843106013680129DC
:400AC00001D1FFF7BFFF200000F02FF970BDC0460404040010020B40FBFBFBFF10B5244B1B685B0715D5234B5B685B070ED5224B596A042001401F4C62688A4362605A6A16
:400B000082435A629B69002B00D098470420FFF7BFFF174B1B685B0518D5164B5B685B0510D5154B596A8022D2001140114842688A434260596A114A0A405A62DB69002BF6
:400B400000D098478020C000FFF7A2FF084B1B685B030CD5074B5B685B0304D5064B1B6A002B00D098478020C002FFF791FF10BD10020B40E000002074010020FFFBFFFF1F
:400B8000014B58647047C0460000002010B5040000F0C7F8044A1168044B0B40A4031C43146000F0C2F810BD00E400E0FF3FFFFF0222014B1A60704700E100E00222014BB4
:400BC0001A60704780E100E010B50400FFF7F6FF2000FFF7D5FF0320FFF7D8FFFFF7E8FF10BDC04610B500F09CF80B4A117820230B43DBB2137009490A7810231A43D2B295
:400C00000A70074A11780B43DBB2137000F08DF8FF2000F06DF810BD93000F4091000F4090000F40014B1878C0B2704761000F40014B1878C0B2704760000F40034B1B7861
:400C40005B07FBD5024B18807047C04661000F4084100F4010B501E00E4B1B880E4B1B789B06F9D400F05DF80C490A78012401231A43D2B20A700A78A2430A70084A117895
:400C80000B43DBB213701378A343137000F04DF810BDC046A4100F4060000F4092000F4093000F4010B51F22064B1A70FFF7D2FFFFF7B8FFFFF7BCFF0023034A1370034A1F
:400CC000137010BD83000F4081000F4080000F4010B5064B1B78002B04D1FFF7E3FF0122024B1A70FFF77EFF10BDC0469C010020044B1B68002BFBDB0002034B1843014BEB
:400D0000186070470000014040000080000000000230800803D00138FDD1C046C046C0467047EFF3108072B6704780F310887047002243088B4274D303098B425FD3030A7A
:400D40008B4244D3030B8B4228D3030C8B420DD3FF22090212BA030C8B4202D31212090265D0030B8B4219D300E0090AC30B8B4201D3CB03C01A5241830B8B4201D38B03CF
:400D8000C01A5241430B8B4201D34B03C01A5241030B8B4201D30B03C01A5241C30A8B4201D3CB02C01A5241830A8B4201D38B02C01A5241430A8B4201D34B02C01A52417A
:400DC000030A8B4201D30B02C01A5241CDD2C3098B4201D3CB01C01A524183098B4201D38B01C01A524143098B4201D34B01C01A524103098B4201D30B01C01A5241C308C9
:400E00008B4201D3CB00C01A524183088B4201D38B00C01A524143088B4201D34B00C01A5241411A00D20146524110467047FFE701B5002000F006F802BDC0460029F7D09E
:400E400076E770477047C04610B50A22002100F0D1F810BD014B18687047C046480100200E4B70B500251E000D4CE41AA410A54204D0AB00F35898470135F8E700F0ACFA10
:400E8000084B00251E00084CE41AA410A54204D0AB00F35898470135F8E770BDE4130000E4130000E4130000EC130000002310B59A4203D0CC5CC4540133F9E710BD030025
:400EC0008218934202D019700133FAE770470000F0B51E00454B87B01B680192029308220B00059003911C7802995D1C09194878104001D02B00F6E72D2C04D19D1C5C785B
:400F00000123009304E000902B2C01D15C789D1C002E02D0102E0AD162E0302C5ED120222B789343582B54D110266C780235009F31007B1E9F412E4BFF183800FFF77EFFB2
:400F4000380004913100FFF7F3FE00230322070094461800029A121951780422114201D0303C07E06246114017D03722012900D02032A41AA64210DD5A1C0BD0B84207D8DC
:400F800002D1049B9C4203DC70430123201801E001235B422C780135DCE75A1C0BD10098059A431E9841124BC01822231360019B002B0AD117E0009A002A00D04042019ABA
:400FC000002A10D0039A002B00D06A1E019B1A6009E03024002EAAD10826A8E70A26A6E7302C9CD0A3E707B0F0BDC0464C010020FFFFFF7F10B513000A0001000248006817
:40100000FFF766FF10BDC0464801002000000000039F250D9949411F010900004C414220332E32200D0A000000300F40800200330F40000100400F400004000080320F4028
:401040002412000080000000831F01030201030C08040A1A0C9B0D090F06109A1201141B15021680170D189B19051B0A1C201EC020E42210242426C8289B2C022E64320111
:40108000330F341E36E03AA03B083E045440580459045B045C115D105F018C028E3C91019501961098079D01A029A202A40AA635B230B40FB701B820BB0CBF40D409D80434
:4010C000D904DB04DC31DD10DF0100800122024007020A550E2811201202138A15021708181019601A011E28220827213218378A3982468047015C225D805F0460106120C8
:40110000624066808A10C08BC26FC43FCCD6CE09D6F0D81EE280403441054260470B481049FF4AFF4BFF4C034E704F4850045A045D015F0162C0644065026610671268C03E
:4011400069026B126C406D026E406F02008A03080A451008110812021301184019811B18200A21412212230A29402A01300832123340382039843B0140404140470A48048C
:4011800049024A024B044E024F205001512052015504580259016208684A69046A546B4073018012811083018E049201940295829674970499409C029D829F0AA20CA44013
:4011C000A530A602A708A821AB20B708C00FC20BC40FCA09CC0FCE0FD0C9D23CD802E240EA105B028A80D640528057806F048F809B04A280AB04B702D460DA80EA80010A05
:40120000100A000001000F4040300F4026310F401B320F404B330F4003400F400B410F4002600F40AC1A12001418200202180002099C0003083301440002001809C1003812
:40124000081A000009820000C0000000010008000E1870000113FE00010F10E0080000A0000051006105400000DEF0C02BFFFFFF2200F04804000000000002280404040463
:40128000111100010000C00040021012C00200124002400200000000000000000000000000000000030405060708090A0B0C0E0F101112131415161718191B1C1D1E1F20A9
:4012C00021222325262728292A2B2E2F3031323334354300002020202020202020202828282828202020202020202020202020202020202020881010101010101010101051
:401300001010101010040404040404040404041010101010101041414141414101010101010101010101010101010101010101011010101010104242424242420202020237
:4013400002020202020202020202020202020202101010102000000000000000000000000000000000000000000000000000000000000000000000000000000000000000ED
:40138000000000000000000000000000000000000000000000000000000000000000000000000000000000000000000000000000000000000000000000000000000000002D
:4013C000000000000000000000000000000000000000000000000000F8B5C046F8BC08BC9E4670479D02000045050000F8B5C046F8BC08BC9E4670477502000010140000DD
:40140000C000002090000000500000000000000000000000FF10FF20FF40FF80010000000000E02EC05D00001800000000366E01F00000000404040000000000000000001B
:40144000000000000000000000000000000000000000000000000000D212000000000000000000000000000000000000000000000000000000000000000000000000000088
:40148000000000000000000000000000000000000000000000000000E8000020D412000000000000000000000000000000000000000000000000000000000000000000003E
:4014C00000000000000000000000000000000000000000000000000000000000000000000000000000000000000000000000000000000000000000000000000000000000EC
:4015000000000000000000000000000000000000000000000000000000000000000000000000000000000000000000000000000000000000000000000000000000000000AB
:40154000000000000000000000000000000000000000000000000000000000000000000000000000000000000000000000000000000000000000000000000000000000006B
:40158000000000000000000000000000000000000000000000000000000000000000000000000000000000000000000000000000000000000000000000000000000000002B
:020000040003F7
:0200000490303A
:0200000011608D
:0200000490402A
:4000000000000000000000000000000000000000000000000000000000000000000000000000000000000000000000000000000000000000000000000000000000000000C0
:400040000000000000000000000000000000000000000000000000000000000000000000000000000000000000000000000000000000000000000000000000000000000080
:0200000490501A
:0C00000000021A1711AA00011A1D230AA1
:0200000490600A
:0100000001FE
:00000001FF